{
  "_format": "hh-sol-artifact-1",
  "contractName": "CryptoDevs",
  "sourceName": "contracts/CryptoDevs.sol",
  "abi": [
    {
      "inputs": [
        {
          "internalType": "string",
          "name": "baseURI",
          "type": "string"
        },
        {
          "internalType": "address",
          "name": "whitelistContract",
          "type": "address"
        }
      ],
      "stateMutability": "nonpayable",
      "type": "constructor"
    },
    {
      "anonymous": false,
      "inputs": [
        {
          "indexed": true,
          "internalType": "address",
          "name": "owner",
          "type": "address"
        },
        {
          "indexed": true,
          "internalType": "address",
          "name": "approved",
          "type": "address"
        },
        {
          "indexed": true,
          "internalType": "uint256",
          "name": "tokenId",
          "type": "uint256"
        }
      ],
      "name": "Approval",
      "type": "event"
    },
    {
      "anonymous": false,
      "inputs": [
        {
          "indexed": true,
          "internalType": "address",
          "name": "owner",
          "type": "address"
        },
        {
          "indexed": true,
          "internalType": "address",
          "name": "operator",
          "type": "address"
        },
        {
          "indexed": false,
          "internalType": "bool",
          "name": "approved",
          "type": "bool"
        }
      ],
      "name": "ApprovalForAll",
      "type": "event"
    },
    {
      "anonymous": false,
      "inputs": [
        {
          "indexed": true,
          "internalType": "address",
          "name": "previousOwner",
          "type": "address"
        },
        {
          "indexed": true,
          "internalType": "address",
          "name": "newOwner",
          "type": "address"
        }
      ],
      "name": "OwnershipTransferred",
      "type": "event"
    },
    {
      "anonymous": false,
      "inputs": [
        {
          "indexed": true,
          "internalType": "address",
          "name": "from",
          "type": "address"
        },
        {
          "indexed": true,
          "internalType": "address",
          "name": "to",
          "type": "address"
        },
        {
          "indexed": true,
          "internalType": "uint256",
          "name": "tokenId",
          "type": "uint256"
        }
      ],
      "name": "Transfer",
      "type": "event"
    },
    {
      "stateMutability": "payable",
      "type": "fallback"
    },
    {
      "inputs": [],
      "name": "_price",
      "outputs": [
        {
          "internalType": "uint256",
          "name": "",
          "type": "uint256"
        }
      ],
      "stateMutability": "view",
      "type": "function"
    },
    {
      "inputs": [
        {
          "internalType": "address",
          "name": "to",
          "type": "address"
        },
        {
          "internalType": "uint256",
          "name": "tokenId",
          "type": "uint256"
        }
      ],
      "name": "approve",
      "outputs": [],
      "stateMutability": "nonpayable",
      "type": "function"
    },
    {
      "inputs": [
        {
          "internalType": "address",
          "name": "owner",
          "type": "address"
        }
      ],
      "name": "balanceOf",
      "outputs": [
        {
          "internalType": "uint256",
          "name": "",
          "type": "uint256"
        }
      ],
      "stateMutability": "view",
      "type": "function"
    },
    {
      "inputs": [
        {
          "internalType": "uint256",
          "name": "tokenId",
          "type": "uint256"
        }
      ],
      "name": "getApproved",
      "outputs": [
        {
          "internalType": "address",
          "name": "",
          "type": "address"
        }
      ],
      "stateMutability": "view",
      "type": "function"
    },
    {
      "inputs": [
        {
          "internalType": "address",
          "name": "owner",
          "type": "address"
        },
        {
          "internalType": "address",
          "name": "operator",
          "type": "address"
        }
      ],
      "name": "isApprovedForAll",
      "outputs": [
        {
          "internalType": "bool",
          "name": "",
          "type": "bool"
        }
      ],
      "stateMutability": "view",
      "type": "function"
    },
    {
      "inputs": [],
      "name": "maxTokenIds",
      "outputs": [
        {
          "internalType": "uint8",
          "name": "",
          "type": "uint8"
        }
      ],
      "stateMutability": "view",
      "type": "function"
    },
    {
      "inputs": [],
      "name": "mint",
      "outputs": [],
      "stateMutability": "payable",
      "type": "function"
    },
    {
      "inputs": [],
      "name": "name",
      "outputs": [
        {
          "internalType": "string",
          "name": "",
          "type": "string"
        }
      ],
      "stateMutability": "view",
      "type": "function"
    },
    {
      "inputs": [],
      "name": "owner",
      "outputs": [
        {
          "internalType": "address",
          "name": "",
          "type": "address"
        }
      ],
      "stateMutability": "view",
      "type": "function"
    },
    {
      "inputs": [
        {
          "internalType": "uint256",
          "name": "tokenId",
          "type": "uint256"
        }
      ],
      "name": "ownerOf",
      "outputs": [
        {
          "internalType": "address",
          "name": "",
          "type": "address"
        }
      ],
      "stateMutability": "view",
      "type": "function"
    },
    {
      "inputs": [],
      "name": "presaleEnded",
      "outputs": [
        {
          "internalType": "uint256",
          "name": "",
          "type": "uint256"
        }
      ],
      "stateMutability": "view",
      "type": "function"
    },
    {
      "inputs": [],
      "name": "presaleStarted",
      "outputs": [
        {
          "internalType": "bool",
          "name": "",
          "type": "bool"
        }
      ],
      "stateMutability": "view",
      "type": "function"
    },
    {
      "inputs": [],
      "name": "presalemint",
      "outputs": [],
      "stateMutability": "payable",
      "type": "function"
    },
    {
      "inputs": [],
      "name": "renounceOwnership",
      "outputs": [],
      "stateMutability": "nonpayable",
      "type": "function"
    },
    {
      "inputs": [
        {
          "internalType": "address",
          "name": "from",
          "type": "address"
        },
        {
          "internalType": "address",
          "name": "to",
          "type": "address"
        },
        {
          "internalType": "uint256",
          "name": "tokenId",
          "type": "uint256"
        }
      ],
      "name": "safeTransferFrom",
      "outputs": [],
      "stateMutability": "nonpayable",
      "type": "function"
    },
    {
      "inputs": [
        {
          "internalType": "address",
          "name": "from",
          "type": "address"
        },
        {
          "internalType": "address",
          "name": "to",
          "type": "address"
        },
        {
          "internalType": "uint256",
          "name": "tokenId",
          "type": "uint256"
        },
        {
          "internalType": "bytes",
          "name": "data",
          "type": "bytes"
        }
      ],
      "name": "safeTransferFrom",
      "outputs": [],
      "stateMutability": "nonpayable",
      "type": "function"
    },
    {
      "inputs": [
        {
          "internalType": "address",
          "name": "operator",
          "type": "address"
        },
        {
          "internalType": "bool",
          "name": "approved",
          "type": "bool"
        }
      ],
      "name": "setApprovalForAll",
      "outputs": [],
      "stateMutability": "nonpayable",
      "type": "function"
    },
    {
      "inputs": [
        {
          "internalType": "bool",
          "name": "val",
          "type": "bool"
        }
      ],
      "name": "setPaused",
      "outputs": [],
      "stateMutability": "nonpayable",
      "type": "function"
    },
    {
      "inputs": [],
      "name": "startPresale",
      "outputs": [],
      "stateMutability": "nonpayable",
      "type": "function"
    },
    {
      "inputs": [
        {
          "internalType": "bytes4",
          "name": "interfaceId",
          "type": "bytes4"
        }
      ],
      "name": "supportsInterface",
      "outputs": [
        {
          "internalType": "bool",
          "name": "",
          "type": "bool"
        }
      ],
      "stateMutability": "view",
      "type": "function"
    },
    {
      "inputs": [],
      "name": "symbol",
      "outputs": [
        {
          "internalType": "string",
          "name": "",
          "type": "string"
        }
      ],
      "stateMutability": "view",
      "type": "function"
    },
    {
      "inputs": [
        {
          "internalType": "uint256",
          "name": "index",
          "type": "uint256"
        }
      ],
      "name": "tokenByIndex",
      "outputs": [
        {
          "internalType": "uint256",
          "name": "",
          "type": "uint256"
        }
      ],
      "stateMutability": "view",
      "type": "function"
    },
    {
      "inputs": [],
      "name": "tokenIds",
      "outputs": [
        {
          "internalType": "uint256",
          "name": "",
          "type": "uint256"
        }
      ],
      "stateMutability": "view",
      "type": "function"
    },
    {
      "inputs": [
        {
          "internalType": "address",
          "name": "owner",
          "type": "address"
        },
        {
          "internalType": "uint256",
          "name": "index",
          "type": "uint256"
        }
      ],
      "name": "tokenOfOwnerByIndex",
      "outputs": [
        {
          "internalType": "uint256",
          "name": "",
          "type": "uint256"
        }
      ],
      "stateMutability": "view",
      "type": "function"
    },
    {
      "inputs": [
        {
          "internalType": "uint256",
          "name": "tokenId",
          "type": "uint256"
        }
      ],
      "name": "tokenURI",
      "outputs": [
        {
          "internalType": "string",
          "name": "",
          "type": "string"
        }
      ],
      "stateMutability": "view",
      "type": "function"
    },
    {
      "inputs": [],
      "name": "totalSupply",
      "outputs": [
        {
          "internalType": "uint256",
          "name": "",
          "type": "uint256"
        }
      ],
      "stateMutability": "view",
      "type": "function"
    },
    {
      "inputs": [
        {
          "internalType": "address",
          "name": "from",
          "type": "address"
        },
        {
          "internalType": "address",
          "name": "to",
          "type": "address"
        },
        {
          "internalType": "uint256",
          "name": "tokenId",
          "type": "uint256"
        }
      ],
      "name": "transferFrom",
      "outputs": [],
      "stateMutability": "nonpayable",
      "type": "function"
    },
    {
      "inputs": [
        {
          "internalType": "address",
          "name": "newOwner",
          "type": "address"
        }
      ],
      "name": "transferOwnership",
      "outputs": [],
      "stateMutability": "nonpayable",
      "type": "function"
    },
    {
      "inputs": [],
      "name": "withdraw",
      "outputs": [],
      "stateMutability": "nonpayable",
      "type": "function"
    },
    {
      "stateMutability": "payable",
      "type": "receive"
    }
  ],
  "bytecode": "0x6080604052662386f26fc10000600c556014600d60006101000a81548160ff021916908360ff1602179055503480156200003857600080fd5b506040516200467c3803806200467c83398181016040528101906200005e919062000387565b6040518060400160405280600b81526020017f43727970746f20446576730000000000000000000000000000000000000000008152506040518060400160405280600281526020017f43440000000000000000000000000000000000000000000000000000000000008152508160009080519060200190620000e29291906200024e565b508060019080519060200190620000fb9291906200024e565b5050506200011e620001126200018060201b60201c565b6200018860201b60201c565b81600b9080519060200190620001369291906200024e565b5080600f60006101000a81548173ffffffffffffffffffffffffffffffffffffffff021916908373ffffffffffffffffffffffffffffffffffffffff16021790555050506200059f565b600033905090565b6000600a60009054906101000a900473ffffffffffffffffffffffffffffffffffffffff16905081600a60006101000a81548173ffffffffffffffffffffffffffffffffffffffff021916908373ffffffffffffffffffffffffffffffffffffffff1602179055508173ffffffffffffffffffffffffffffffffffffffff168173ffffffffffffffffffffffffffffffffffffffff167f8be0079c531659141344cd1fd0a4f28419497f9722a3daafe3b4186f6b6457e060405160405180910390a35050565b8280546200025c90620004aa565b90600052602060002090601f016020900481019282620002805760008555620002cc565b82601f106200029b57805160ff1916838001178555620002cc565b82800160010185558215620002cc579182015b82811115620002cb578251825591602001919060010190620002ae565b5b509050620002db9190620002df565b5090565b5b80821115620002fa576000816000905550600101620002e0565b5090565b6000620003156200030f846200040a565b620003e1565b9050828152602081018484840111156200032e57600080fd5b6200033b84828562000474565b509392505050565b600081519050620003548162000585565b92915050565b600082601f8301126200036c57600080fd5b81516200037e848260208601620002fe565b91505092915050565b600080604083850312156200039b57600080fd5b600083015167ffffffffffffffff811115620003b657600080fd5b620003c4858286016200035a565b9250506020620003d78582860162000343565b9150509250929050565b6000620003ed62000400565b9050620003fb8282620004e0565b919050565b6000604051905090565b600067ffffffffffffffff82111562000428576200042762000545565b5b620004338262000574565b9050602081019050919050565b60006200044d8262000454565b9050919050565b600073ffffffffffffffffffffffffffffffffffffffff82169050919050565b60005b838110156200049457808201518184015260208101905062000477565b83811115620004a4576000848401525b50505050565b60006002820490506001821680620004c357607f821691505b60208210811415620004da57620004d962000516565b5b50919050565b620004eb8262000574565b810181811067ffffffffffffffff821117156200050d576200050c62000545565b5b80604052505050565b7f4e487b7100000000000000000000000000000000000000000000000000000000600052602260045260246000fd5b7f4e487b7100000000000000000000000000000000000000000000000000000000600052604160045260246000fd5b6000601f19601f8301169050919050565b620005908162000440565b81146200059c57600080fd5b50565b6140cd80620005af6000396000f3fe6080604052600436106101c65760003560e01c80634f6ccce7116100f757806395d89b4111610095578063e580b2b011610064578063e580b2b014610617578063e985e9c514610642578063f2fde38b1461067f578063f959660f146106a8576101cd565b806395d89b411461055d578063a22cb46514610588578063b88d4fde146105b1578063c87b56dd146105da576101cd565b806370a08231116100d157806370a08231146104b3578063714cff56146104f0578063715018a61461051b5780638da5cb5b14610532576101cd565b80634f6ccce71461040e5780635f7696211461044b5780636352211e14610476576101cd565b806316c38b3c1161016457806323b872dd1161013e57806323b872dd146103685780632f745c59146103915780633ccfd60b146103ce57806342842e0e146103e5576101cd565b806316c38b3c146102e957806318160ddd14610312578063235b6ea11461033d576101cd565b806306fdde03116101a057806306fdde031461024e578063081812fc14610279578063095ea7b3146102b65780631249c58b146102df576101cd565b806301ffc9a7146101cf57806304549d6f1461020c57806304c98b2b14610237576101cd565b366101cd57005b005b3480156101db57600080fd5b506101f660048036038101906101f19190612ea8565b6106b2565b604051610203919061340d565b60405180910390f35b34801561021857600080fd5b5061022161072c565b60405161022e919061340d565b60405180910390f35b34801561024357600080fd5b5061024c61073f565b005b34801561025a57600080fd5b50610263610778565b6040516102709190613428565b60405180910390f35b34801561028557600080fd5b506102a0600480360381019061029b9190612efa565b61080a565b6040516102ad91906133a6565b60405180910390f35b3480156102c257600080fd5b506102dd60048036038101906102d89190612e1a565b610850565b005b6102e7610968565b005b3480156102f557600080fd5b50610310600480360381019061030b9190612e56565b610ad8565b005b34801561031e57600080fd5b50610327610afd565b604051610334919061374a565b60405180910390f35b34801561034957600080fd5b50610352610b0a565b60405161035f919061374a565b60405180910390f35b34801561037457600080fd5b5061038f600480360381019061038a9190612d14565b610b10565b005b34801561039d57600080fd5b506103b860048036038101906103b39190612e1a565b610b70565b6040516103c5919061374a565b60405180910390f35b3480156103da57600080fd5b506103e3610c15565b005b3480156103f157600080fd5b5061040c60048036038101906104079190612d14565b610cdf565b005b34801561041a57600080fd5b5061043560048036038101906104309190612efa565b610cff565b604051610442919061374a565b60405180910390f35b34801561045757600080fd5b50610460610d96565b60405161046d9190613765565b60405180910390f35b34801561048257600080fd5b5061049d60048036038101906104989190612efa565b610da9565b6040516104aa91906133a6565b60405180910390f35b3480156104bf57600080fd5b506104da60048036038101906104d59190612caf565b610e30565b6040516104e7919061374a565b60405180910390f35b3480156104fc57600080fd5b50610505610ee8565b604051610512919061374a565b60405180910390f35b34801561052757600080fd5b50610530610eee565b005b34801561053e57600080fd5b50610547610f02565b60405161055491906133a6565b60405180910390f35b34801561056957600080fd5b50610572610f2c565b60405161057f9190613428565b60405180910390f35b34801561059457600080fd5b506105af60048036038101906105aa9190612dde565b610fbe565b005b3480156105bd57600080fd5b506105d860048036038101906105d39190612d63565b610fd4565b005b3480156105e657600080fd5b5061060160048036038101906105fc9190612efa565b611036565b60405161060e9190613428565b60405180910390f35b34801561062357600080fd5b5061062c61109e565b604051610639919061374a565b60405180910390f35b34801561064e57600080fd5b5061066960048036038101906106649190612cd8565b6110a4565b604051610676919061340d565b60405180910390f35b34801561068b57600080fd5b506106a660048036038101906106a19190612caf565b611138565b005b6106b06111bc565b005b60007f780e9d63000000000000000000000000000000000000000000000000000000007bffffffffffffffffffffffffffffffffffffffffffffffffffffffff1916827bffffffffffffffffffffffffffffffffffffffffffffffffffffffff19161480610725575061072482611415565b5b9050919050565b600f60149054906101000a900460ff1681565b6107476114f7565b6001600f60146101000a81548160ff02191690831515021790555061012c426107709190613824565b601081905550565b60606000805461078790613971565b80601f01602080910402602001604051908101604052809291908181526020018280546107b390613971565b80156108005780601f106107d557610100808354040283529160200191610800565b820191906000526020600020905b8154815290600101906020018083116107e357829003601f168201915b5050505050905090565b600061081582611575565b6004600083815260200190815260200160002060009054906101000a900473ffffffffffffffffffffffffffffffffffffffff169050919050565b600061085b82610da9565b90508073ffffffffffffffffffffffffffffffffffffffff168373ffffffffffffffffffffffffffffffffffffffff1614156108cc576040517f08c379a00000000000000000000000000000000000000000000000000000000081526004016108c39061368a565b60405180910390fd5b8073ffffffffffffffffffffffffffffffffffffffff166108eb6115c0565b73ffffffffffffffffffffffffffffffffffffffff16148061091a5750610919816109146115c0565b6110a4565b5b610959576040517f08c379a0000000000000000000000000000000000000000000000000000000008152600401610950906136ca565b60405180910390fd5b61096383836115c8565b505050565b601160009054906101000a900460ff16156109b8576040517f08c379a00000000000000000000000000000000000000000000000000000000081526004016109af9061364a565b60405180910390fd5b600f60149054906101000a900460ff1680156109d657506010544210155b610a15576040517f08c379a0000000000000000000000000000000000000000000000000000000008152600401610a0c9061372a565b60405180910390fd5b600d60009054906101000a900460ff1660ff16600e5410610a6b576040517f08c379a0000000000000000000000000000000000000000000000000000000008152600401610a62906134ea565b60405180910390fd5b600c54341015610ab0576040517f08c379a0000000000000000000000000000000000000000000000000000000008152600401610aa7906136aa565b60405180910390fd5b6001600e6000828254610ac39190613824565b92505081905550610ad633600e54611681565b565b610ae06114f7565b80601160006101000a81548160ff02191690831515021790555050565b6000600880549050905090565b600c5481565b610b21610b1b6115c0565b8261169f565b610b60576040517f08c379a0000000000000000000000000000000000000000000000000000000008152600401610b579061344a565b60405180910390fd5b610b6b838383611734565b505050565b6000610b7b83610e30565b8210610bbc576040517f08c379a0000000000000000000000000000000000000000000000000000000008152600401610bb39061348a565b60405180910390fd5b600660008473ffffffffffffffffffffffffffffffffffffffff1673ffffffffffffffffffffffffffffffffffffffff168152602001908152602001600020600083815260200190815260200160002054905092915050565b610c1d6114f7565b6000610c27610f02565b9050600047905060008273ffffffffffffffffffffffffffffffffffffffff1682604051610c5490613391565b60006040518083038185875af1925050503d8060008114610c91576040519150601f19603f3d011682016040523d82523d6000602084013e610c96565b606091505b5050905080610cda576040517f08c379a0000000000000000000000000000000000000000000000000000000008152600401610cd19061346a565b60405180910390fd5b505050565b610cfa83838360405180602001604052806000815250610fd4565b505050565b6000610d09610afd565b8210610d4a576040517f08c379a0000000000000000000000000000000000000000000000000000000008152600401610d41906136ea565b60405180910390fd5b60088281548110610d84577f4e487b7100000000000000000000000000000000000000000000000000000000600052603260045260246000fd5b90600052602060002001549050919050565b600d60009054906101000a900460ff1681565b600080610db583611a2e565b9050600073ffffffffffffffffffffffffffffffffffffffff168173ffffffffffffffffffffffffffffffffffffffff161415610e27576040517f08c379a0000000000000000000000000000000000000000000000000000000008152600401610e1e9061366a565b60405180910390fd5b80915050919050565b60008073ffffffffffffffffffffffffffffffffffffffff168273ffffffffffffffffffffffffffffffffffffffff161415610ea1576040517f08c379a0000000000000000000000000000000000000000000000000000000008152600401610e98906135ca565b60405180910390fd5b600360008373ffffffffffffffffffffffffffffffffffffffff1673ffffffffffffffffffffffffffffffffffffffff168152602001908152602001600020549050919050565b600e5481565b610ef66114f7565b610f006000611a6b565b565b6000600a60009054906101000a900473ffffffffffffffffffffffffffffffffffffffff16905090565b606060018054610f3b90613971565b80601f0160208091040260200160405190810160405280929190818152602001828054610f6790613971565b8015610fb45780601f10610f8957610100808354040283529160200191610fb4565b820191906000526020600020905b815481529060010190602001808311610f9757829003601f168201915b5050505050905090565b610fd0610fc96115c0565b8383611b31565b5050565b610fe5610fdf6115c0565b8361169f565b611024576040517f08c379a000000000000000000000000000000000000000000000000000000000815260040161101b9061344a565b60405180910390fd5b61103084848484611c9e565b50505050565b606061104182611575565b600061104b611cfa565b9050600081511161106b5760405180602001604052806000815250611096565b8061107584611d8c565b60405160200161108692919061336d565b6040516020818303038152906040525b915050919050565b60105481565b6000600560008473ffffffffffffffffffffffffffffffffffffffff1673ffffffffffffffffffffffffffffffffffffffff16815260200190815260200160002060008373ffffffffffffffffffffffffffffffffffffffff1673ffffffffffffffffffffffffffffffffffffffff16815260200190815260200160002060009054906101000a900460ff16905092915050565b6111406114f7565b600073ffffffffffffffffffffffffffffffffffffffff168173ffffffffffffffffffffffffffffffffffffffff1614156111b0576040517f08c379a00000000000000000000000000000000000000000000000000000000081526004016111a7906134ca565b60405180910390fd5b6111b981611a6b565b50565b601160009054906101000a900460ff161561120c576040517f08c379a00000000000000000000000000000000000000000000000000000000081526004016112039061364a565b60405180910390fd5b600f60149054906101000a900460ff168015611229575060105442105b611268576040517f08c379a000000000000000000000000000000000000000000000000000000000815260040161125f9061356a565b60405180910390fd5b600f60009054906101000a900473ffffffffffffffffffffffffffffffffffffffff1673ffffffffffffffffffffffffffffffffffffffff166306c933d8336040518263ffffffff1660e01b81526004016112c391906133a6565b60206040518083038186803b1580156112db57600080fd5b505afa1580156112ef573d6000803e3d6000fd5b505050506040513d601f19601f820116820180604052508101906113139190612e7f565b611352576040517f08c379a00000000000000000000000000000000000000000000000000000000081526004016113499061360a565b60405180910390fd5b600d60009054906101000a900460ff1660ff16600e54106113a8576040517f08c379a000000000000000000000000000000000000000000000000000000000815260040161139f9061352a565b60405180910390fd5b600c543410156113ed576040517f08c379a00000000000000000000000000000000000000000000000000000000081526004016113e4906136aa565b60405180910390fd5b6001600e60008282546114009190613824565b9250508190555061141333600e54611681565b565b60007f80ac58cd000000000000000000000000000000000000000000000000000000007bffffffffffffffffffffffffffffffffffffffffffffffffffffffff1916827bffffffffffffffffffffffffffffffffffffffffffffffffffffffff191614806114e057507f5b5e139f000000000000000000000000000000000000000000000000000000007bffffffffffffffffffffffffffffffffffffffffffffffffffffffff1916827bffffffffffffffffffffffffffffffffffffffffffffffffffffffff1916145b806114f057506114ef82611eb0565b5b9050919050565b6114ff6115c0565b73ffffffffffffffffffffffffffffffffffffffff1661151d610f02565b73ffffffffffffffffffffffffffffffffffffffff1614611573576040517f08c379a000000000000000000000000000000000000000000000000000000000815260040161156a9061362a565b60405180910390fd5b565b61157e81611f1a565b6115bd576040517f08c379a00000000000000000000000000000000000000000000000000000000081526004016115b49061366a565b60405180910390fd5b50565b600033905090565b816004600083815260200190815260200160002060006101000a81548173ffffffffffffffffffffffffffffffffffffffff021916908373ffffffffffffffffffffffffffffffffffffffff160217905550808273ffffffffffffffffffffffffffffffffffffffff1661163b83610da9565b73ffffffffffffffffffffffffffffffffffffffff167f8c5be1e5ebec7d5bd14f71427d1e84f3dd0314c0f7b2291e5b200ac8c7c3b92560405160405180910390a45050565b61169b828260405180602001604052806000815250611f5b565b5050565b6000806116ab83610da9565b90508073ffffffffffffffffffffffffffffffffffffffff168473ffffffffffffffffffffffffffffffffffffffff1614806116ed57506116ec81856110a4565b5b8061172b57508373ffffffffffffffffffffffffffffffffffffffff166117138461080a565b73ffffffffffffffffffffffffffffffffffffffff16145b91505092915050565b8273ffffffffffffffffffffffffffffffffffffffff1661175482610da9565b73ffffffffffffffffffffffffffffffffffffffff16146117aa576040517f08c379a00000000000000000000000000000000000000000000000000000000081526004016117a19061350a565b60405180910390fd5b600073ffffffffffffffffffffffffffffffffffffffff168273ffffffffffffffffffffffffffffffffffffffff16141561181a576040517f08c379a00000000000000000000000000000000000000000000000000000000081526004016118119061358a565b60405180910390fd5b6118278383836001611fb6565b8273ffffffffffffffffffffffffffffffffffffffff1661184782610da9565b73ffffffffffffffffffffffffffffffffffffffff161461189d576040517f08c379a00000000000000000000000000000000000000000000000000000000081526004016118949061350a565b60405180910390fd5b6004600082815260200190815260200160002060006101000a81549073ffffffffffffffffffffffffffffffffffffffff02191690556001600360008573ffffffffffffffffffffffffffffffffffffffff1673ffffffffffffffffffffffffffffffffffffffff168152602001908152602001600020600082825403925050819055506001600360008473ffffffffffffffffffffffffffffffffffffffff1673ffffffffffffffffffffffffffffffffffffffff16815260200190815260200160002060008282540192505081905550816002600083815260200190815260200160002060006101000a81548173ffffffffffffffffffffffffffffffffffffffff021916908373ffffffffffffffffffffffffffffffffffffffff160217905550808273ffffffffffffffffffffffffffffffffffffffff168473ffffffffffffffffffffffffffffffffffffffff167fddf252ad1be2c89b69c2b068fc378daa952ba7f163c4a11628f55a4df523b3ef60405160405180910390a4611a298383836001612116565b505050565b60006002600083815260200190815260200160002060009054906101000a900473ffffffffffffffffffffffffffffffffffffffff169050919050565b6000600a60009054906101000a900473ffffffffffffffffffffffffffffffffffffffff16905081600a60006101000a81548173ffffffffffffffffffffffffffffffffffffffff021916908373ffffffffffffffffffffffffffffffffffffffff1602179055508173ffffffffffffffffffffffffffffffffffffffff168173ffffffffffffffffffffffffffffffffffffffff167f8be0079c531659141344cd1fd0a4f28419497f9722a3daafe3b4186f6b6457e060405160405180910390a35050565b8173ffffffffffffffffffffffffffffffffffffffff168373ffffffffffffffffffffffffffffffffffffffff161415611ba0576040517f08c379a0000000000000000000000000000000000000000000000000000000008152600401611b97906135aa565b60405180910390fd5b80600560008573ffffffffffffffffffffffffffffffffffffffff1673ffffffffffffffffffffffffffffffffffffffff16815260200190815260200160002060008473ffffffffffffffffffffffffffffffffffffffff1673ffffffffffffffffffffffffffffffffffffffff16815260200190815260200160002060006101000a81548160ff0219169083151502179055508173ffffffffffffffffffffffffffffffffffffffff168373ffffffffffffffffffffffffffffffffffffffff167f17307eab39ab6107e8899845ad3d59bd9653f200f220920489ca2b5937696c3183604051611c91919061340d565b60405180910390a3505050565b611ca9848484611734565b611cb58484848461211c565b611cf4576040517f08c379a0000000000000000000000000000000000000000000000000000000008152600401611ceb906134aa565b60405180910390fd5b50505050565b6060600b8054611d0990613971565b80601f0160208091040260200160405190810160405280929190818152602001828054611d3590613971565b8015611d825780601f10611d5757610100808354040283529160200191611d82565b820191906000526020600020905b815481529060010190602001808311611d6557829003601f168201915b5050505050905090565b606060006001611d9b846122b3565b01905060008167ffffffffffffffff811115611de0577f4e487b7100000000000000000000000000000000000000000000000000000000600052604160045260246000fd5b6040519080825280601f01601f191660200182016040528015611e125781602001600182028036833780820191505090505b509050600082602001820190505b600115611ea5578080600190039150507f3031323334353637383961626364656600000000000000000000000000000000600a86061a8153600a8581611e8f577f4e487b7100000000000000000000000000000000000000000000000000000000600052601260045260246000fd5b0494506000851415611ea057611ea5565b611e20565b819350505050919050565b60007f01ffc9a7000000000000000000000000000000000000000000000000000000007bffffffffffffffffffffffffffffffffffffffffffffffffffffffff1916827bffffffffffffffffffffffffffffffffffffffffffffffffffffffff1916149050919050565b60008073ffffffffffffffffffffffffffffffffffffffff16611f3c83611a2e565b73ffffffffffffffffffffffffffffffffffffffff1614159050919050565b611f6583836124ea565b611f72600084848461211c565b611fb1576040517f08c379a0000000000000000000000000000000000000000000000000000000008152600401611fa8906134aa565b60405180910390fd5b505050565b611fc284848484612708565b6001811115612006576040517f08c379a0000000000000000000000000000000000000000000000000000000008152600401611ffd9061370a565b60405180910390fd5b6000829050600073ffffffffffffffffffffffffffffffffffffffff168573ffffffffffffffffffffffffffffffffffffffff16141561204e576120498161282e565b61208d565b8373ffffffffffffffffffffffffffffffffffffffff168573ffffffffffffffffffffffffffffffffffffffff161461208c5761208b8582612877565b5b5b600073ffffffffffffffffffffffffffffffffffffffff168473ffffffffffffffffffffffffffffffffffffffff1614156120d0576120cb816129e4565b61210f565b8473ffffffffffffffffffffffffffffffffffffffff168473ffffffffffffffffffffffffffffffffffffffff161461210e5761210d8482612b27565b5b5b5050505050565b50505050565b600061213d8473ffffffffffffffffffffffffffffffffffffffff16612ba6565b156122a6578373ffffffffffffffffffffffffffffffffffffffff1663150b7a026121666115c0565b8786866040518563ffffffff1660e01b815260040161218894939291906133c1565b602060405180830381600087803b1580156121a257600080fd5b505af19250505080156121d357506040513d601f19601f820116820180604052508101906121d09190612ed1565b60015b612256573d8060008114612203576040519150601f19603f3d011682016040523d82523d6000602084013e612208565b606091505b5060008151141561224e576040517f08c379a0000000000000000000000000000000000000000000000000000000008152600401612245906134aa565b60405180910390fd5b805181602001fd5b63150b7a0260e01b7bffffffffffffffffffffffffffffffffffffffffffffffffffffffff1916817bffffffffffffffffffffffffffffffffffffffffffffffffffffffff1916149150506122ab565b600190505b949350505050565b600080600090507a184f03e93ff9f4daa797ed6e38ed64bf6a1f0100000000000000008310612337577a184f03e93ff9f4daa797ed6e38ed64bf6a1f010000000000000000838161232d577f4e487b7100000000000000000000000000000000000000000000000000000000600052601260045260246000fd5b0492506040810190505b6d04ee2d6d415b85acef8100000000831061239a576d04ee2d6d415b85acef81000000008381612390577f4e487b7100000000000000000000000000000000000000000000000000000000600052601260045260246000fd5b0492506020810190505b662386f26fc1000083106123ef57662386f26fc1000083816123e5577f4e487b7100000000000000000000000000000000000000000000000000000000600052601260045260246000fd5b0492506010810190505b6305f5e100831061243e576305f5e1008381612434577f4e487b7100000000000000000000000000000000000000000000000000000000600052601260045260246000fd5b0492506008810190505b612710831061248957612710838161247f577f4e487b7100000000000000000000000000000000000000000000000000000000600052601260045260246000fd5b0492506004810190505b606483106124d257606483816124c8577f4e487b7100000000000000000000000000000000000000000000000000000000600052601260045260246000fd5b0492506002810190505b600a83106124e1576001810190505b80915050919050565b600073ffffffffffffffffffffffffffffffffffffffff168273ffffffffffffffffffffffffffffffffffffffff16141561255a576040517f08c379a0000000000000000000000000000000000000000000000000000000008152600401612551906135ea565b60405180910390fd5b61256381611f1a565b156125a3576040517f08c379a000000000000000000000000000000000000000000000000000000000815260040161259a9061354a565b60405180910390fd5b6125b1600083836001611fb6565b6125ba81611f1a565b156125fa576040517f08c379a00000000000000000000000000000000000000000000000000000000081526004016125f19061354a565b60405180910390fd5b6001600360008473ffffffffffffffffffffffffffffffffffffffff1673ffffffffffffffffffffffffffffffffffffffff16815260200190815260200160002060008282540192505081905550816002600083815260200190815260200160002060006101000a81548173ffffffffffffffffffffffffffffffffffffffff021916908373ffffffffffffffffffffffffffffffffffffffff160217905550808273ffffffffffffffffffffffffffffffffffffffff16600073ffffffffffffffffffffffffffffffffffffffff167fddf252ad1be2c89b69c2b068fc378daa952ba7f163c4a11628f55a4df523b3ef60405160405180910390a4612704600083836001612116565b5050565b600181111561282857600073ffffffffffffffffffffffffffffffffffffffff168473ffffffffffffffffffffffffffffffffffffffff161461279c5780600360008673ffffffffffffffffffffffffffffffffffffffff1673ffffffffffffffffffffffffffffffffffffffff1681526020019081526020016000206000828254612794919061387a565b925050819055505b600073ffffffffffffffffffffffffffffffffffffffff168373ffffffffffffffffffffffffffffffffffffffff16146128275780600360008573ffffffffffffffffffffffffffffffffffffffff1673ffffffffffffffffffffffffffffffffffffffff168152602001908152602001600020600082825461281f9190613824565b925050819055505b5b50505050565b6008805490506009600083815260200190815260200160002081905550600881908060018154018082558091505060019003906000526020600020016000909190919091505550565b6000600161288484610e30565b61288e919061387a565b9050600060076000848152602001908152602001600020549050818114612973576000600660008673ffffffffffffffffffffffffffffffffffffffff1673ffffffffffffffffffffffffffffffffffffffff168152602001908152602001600020600084815260200190815260200160002054905080600660008773ffffffffffffffffffffffffffffffffffffffff1673ffffffffffffffffffffffffffffffffffffffff168152602001908152602001600020600084815260200190815260200160002081905550816007600083815260200190815260200160002081905550505b6007600084815260200190815260200160002060009055600660008573ffffffffffffffffffffffffffffffffffffffff1673ffffffffffffffffffffffffffffffffffffffff16815260200190815260200160002060008381526020019081526020016000206000905550505050565b600060016008805490506129f8919061387a565b9050600060096000848152602001908152602001600020549050600060088381548110612a4e577f4e487b7100000000000000000000000000000000000000000000000000000000600052603260045260246000fd5b906000526020600020015490508060088381548110612a96577f4e487b7100000000000000000000000000000000000000000000000000000000600052603260045260246000fd5b906000526020600020018190555081600960008381526020019081526020016000208190555060096000858152602001908152602001600020600090556008805480612b0b577f4e487b7100000000000000000000000000000000000000000000000000000000600052603160045260246000fd5b6001900381819060005260206000200160009055905550505050565b6000612b3283610e30565b905081600660008573ffffffffffffffffffffffffffffffffffffffff1673ffffffffffffffffffffffffffffffffffffffff168152602001908152602001600020600083815260200190815260200160002081905550806007600084815260200190815260200160002081905550505050565b6000808273ffffffffffffffffffffffffffffffffffffffff163b119050919050565b6000612bdc612bd7846137a5565b613780565b905082815260208101848484011115612bf457600080fd5b612bff84828561392f565b509392505050565b600081359050612c168161403b565b92915050565b600081359050612c2b81614052565b92915050565b600081519050612c4081614052565b92915050565b600081359050612c5581614069565b92915050565b600081519050612c6a81614069565b92915050565b600082601f830112612c8157600080fd5b8135612c91848260208601612bc9565b91505092915050565b600081359050612ca981614080565b92915050565b600060208284031215612cc157600080fd5b6000612ccf84828501612c07565b91505092915050565b60008060408385031215612ceb57600080fd5b6000612cf985828601612c07565b9250506020612d0a85828601612c07565b9150509250929050565b600080600060608486031215612d2957600080fd5b6000612d3786828701612c07565b9350506020612d4886828701612c07565b9250506040612d5986828701612c9a565b9150509250925092565b60008060008060808587031215612d7957600080fd5b6000612d8787828801612c07565b9450506020612d9887828801612c07565b9350506040612da987828801612c9a565b925050606085013567ffffffffffffffff811115612dc657600080fd5b612dd287828801612c70565b91505092959194509250565b60008060408385031215612df157600080fd5b6000612dff85828601612c07565b9250506020612e1085828601612c1c565b9150509250929050565b60008060408385031215612e2d57600080fd5b6000612e3b85828601612c07565b9250506020612e4c85828601612c9a565b9150509250929050565b600060208284031215612e6857600080fd5b6000612e7684828501612c1c565b91505092915050565b600060208284031215612e9157600080fd5b6000612e9f84828501612c31565b91505092915050565b600060208284031215612eba57600080fd5b6000612ec884828501612c46565b91505092915050565b600060208284031215612ee357600080fd5b6000612ef184828501612c5b565b91505092915050565b600060208284031215612f0c57600080fd5b6000612f1a84828501612c9a565b91505092915050565b612f2c816138ae565b82525050565b612f3b816138c0565b82525050565b6000612f4c826137d6565b612f5681856137ec565b9350612f6681856020860161393e565b612f6f81613a61565b840191505092915050565b6000612f85826137e1565b612f8f8185613808565b9350612f9f81856020860161393e565b612fa881613a61565b840191505092915050565b6000612fbe826137e1565b612fc88185613819565b9350612fd881856020860161393e565b80840191505092915050565b6000612ff1602d83613808565b9150612ffc82613a72565b604082019050919050565b6000613014601283613808565b915061301f82613ac1565b602082019050919050565b6000613037602b83613808565b915061304282613aea565b604082019050919050565b600061305a603283613808565b915061306582613b39565b604082019050919050565b600061307d602683613808565b915061308882613b88565b604082019050919050565b60006130a0602183613808565b91506130ab82613bd7565b604082019050919050565b60006130c3602583613808565b91506130ce82613c26565b604082019050919050565b60006130e6602383613808565b91506130f182613c75565b604082019050919050565b6000613109601c83613808565b915061311482613cc4565b602082019050919050565b600061312c601683613808565b915061313782613ced565b602082019050919050565b600061314f602483613808565b915061315a82613d16565b604082019050919050565b6000613172601983613808565b915061317d82613d65565b602082019050919050565b6000613195602983613808565b91506131a082613d8e565b604082019050919050565b60006131b8602083613808565b91506131c382613ddd565b602082019050919050565b60006131db601783613808565b91506131e682613e06565b602082019050919050565b60006131fe602083613808565b915061320982613e2f565b602082019050919050565b6000613221601983613808565b915061322c82613e58565b602082019050919050565b6000613244601883613808565b915061324f82613e81565b602082019050919050565b6000613267602183613808565b915061327282613eaa565b604082019050919050565b600061328a601983613808565b915061329582613ef9565b602082019050919050565b60006132ad6000836137fd565b91506132b882613f22565b600082019050919050565b60006132d0603d83613808565b91506132db82613f25565b604082019050919050565b60006132f3602c83613808565b91506132fe82613f74565b604082019050919050565b6000613316603583613808565b915061332182613fc3565b604082019050919050565b6000613339601983613808565b915061334482614012565b602082019050919050565b61335881613918565b82525050565b61336781613922565b82525050565b60006133798285612fb3565b91506133858284612fb3565b91508190509392505050565b600061339c826132a0565b9150819050919050565b60006020820190506133bb6000830184612f23565b92915050565b60006080820190506133d66000830187612f23565b6133e36020830186612f23565b6133f0604083018561334f565b81810360608301526134028184612f41565b905095945050505050565b60006020820190506134226000830184612f32565b92915050565b600060208201905081810360008301526134428184612f7a565b905092915050565b6000602082019050818103600083015261346381612fe4565b9050919050565b6000602082019050818103600083015261348381613007565b9050919050565b600060208201905081810360008301526134a38161302a565b9050919050565b600060208201905081810360008301526134c38161304d565b9050919050565b600060208201905081810360008301526134e381613070565b9050919050565b6000602082019050818103600083015261350381613093565b9050919050565b60006020820190508181036000830152613523816130b6565b9050919050565b60006020820190508181036000830152613543816130d9565b9050919050565b60006020820190508181036000830152613563816130fc565b9050919050565b600060208201905081810360008301526135838161311f565b9050919050565b600060208201905081810360008301526135a381613142565b9050919050565b600060208201905081810360008301526135c381613165565b9050919050565b600060208201905081810360008301526135e381613188565b9050919050565b60006020820190508181036000830152613603816131ab565b9050919050565b60006020820190508181036000830152613623816131ce565b9050919050565b60006020820190508181036000830152613643816131f1565b9050919050565b6000602082019050818103600083015261366381613214565b9050919050565b6000602082019050818103600083015261368381613237565b9050919050565b600060208201905081810360008301526136a38161325a565b9050919050565b600060208201905081810360008301526136c38161327d565b9050919050565b600060208201905081810360008301526136e3816132c3565b9050919050565b60006020820190508181036000830152613703816132e6565b9050919050565b6000602082019050818103600083015261372381613309565b9050919050565b600060208201905081810360008301526137438161332c565b9050919050565b600060208201905061375f600083018461334f565b92915050565b600060208201905061377a600083018461335e565b92915050565b600061378a61379b565b905061379682826139a3565b919050565b6000604051905090565b600067ffffffffffffffff8211156137c0576137bf613a32565b5b6137c982613a61565b9050602081019050919050565b600081519050919050565b600081519050919050565b600082825260208201905092915050565b600081905092915050565b600082825260208201905092915050565b600081905092915050565b600061382f82613918565b915061383a83613918565b9250827fffffffffffffffffffffffffffffffffffffffffffffffffffffffffffffffff0382111561386f5761386e6139d4565b5b828201905092915050565b600061388582613918565b915061389083613918565b9250828210156138a3576138a26139d4565b5b828203905092915050565b60006138b9826138f8565b9050919050565b60008115159050919050565b60007fffffffff0000000000000000000000000000000000000000000000000000000082169050919050565b600073ffffffffffffffffffffffffffffffffffffffff82169050919050565b6000819050919050565b600060ff82169050919050565b82818337600083830152505050565b60005b8381101561395c578082015181840152602081019050613941565b8381111561396b576000848401525b50505050565b6000600282049050600182168061398957607f821691505b6020821081141561399d5761399c613a03565b5b50919050565b6139ac82613a61565b810181811067ffffffffffffffff821117156139cb576139ca613a32565b5b80604052505050565b7f4e487b7100000000000000000000000000000000000000000000000000000000600052601160045260246000fd5b7f4e487b7100000000000000000000000000000000000000000000000000000000600052602260045260246000fd5b7f4e487b7100000000000000000000000000000000000000000000000000000000600052604160045260246000fd5b6000601f19601f8301169050919050565b7f4552433732313a2063616c6c6572206973206e6f7420746f6b656e206f776e6560008201527f72206f7220617070726f76656400000000000000000000000000000000000000602082015250565b7f5472616e73656374696f6e204661696c65640000000000000000000000000000600082015250565b7f455243373231456e756d657261626c653a206f776e657220696e646578206f7560008201527f74206f6620626f756e6473000000000000000000000000000000000000000000602082015250565b7f4552433732313a207472616e7366657220746f206e6f6e20455243373231526560008201527f63656976657220696d706c656d656e7465720000000000000000000000000000602082015250565b7f4f776e61626c653a206e6577206f776e657220697320746865207a65726f206160008201527f6464726573730000000000000000000000000000000000000000000000000000602082015250565b7f457863656564206d6178696d756d2043727970746f204465767320737570706c60008201527f7900000000000000000000000000000000000000000000000000000000000000602082015250565b7f4552433732313a207472616e736665722066726f6d20696e636f72726563742060008201527f6f776e6572000000000000000000000000000000000000000000000000000000602082015250565b7f4578636565646564206d6178696d756d2043727970746f20446576732073757060008201527f706c790000000000000000000000000000000000000000000000000000000000602082015250565b7f4552433732313a20746f6b656e20616c7265616479206d696e74656400000000600082015250565b7f50726573616c65206973206e6f742072756e6e696e6700000000000000000000600082015250565b7f4552433732313a207472616e7366657220746f20746865207a65726f2061646460008201527f7265737300000000000000000000000000000000000000000000000000000000602082015250565b7f4552433732313a20617070726f766520746f2063616c6c657200000000000000600082015250565b7f4552433732313a2061646472657373207a65726f206973206e6f74206120766160008201527f6c6964206f776e65720000000000000000000000000000000000000000000000602082015250565b7f4552433732313a206d696e7420746f20746865207a65726f2061646472657373600082015250565b7f596f7520617265206e6f742077686974656c6973746564000000000000000000600082015250565b7f4f776e61626c653a2063616c6c6572206973206e6f7420746865206f776e6572600082015250565b7f436f6e74726163742063757272656e746c792070617573656400000000000000600082015250565b7f4552433732313a20696e76616c696420746f6b656e2049440000000000000000600082015250565b7f4552433732313a20617070726f76616c20746f2063757272656e74206f776e6560008201527f7200000000000000000000000000000000000000000000000000000000000000602082015250565b7f45746865722073656e74206973206e6f7420636f727265637400000000000000600082015250565b50565b7f4552433732313a20617070726f76652063616c6c6572206973206e6f7420746f60008201527f6b656e206f776e6572206f7220617070726f76656420666f7220616c6c000000602082015250565b7f455243373231456e756d657261626c653a20676c6f62616c20696e646578206f60008201527f7574206f6620626f756e64730000000000000000000000000000000000000000602082015250565b7f455243373231456e756d657261626c653a20636f6e736563757469766520747260008201527f616e7366657273206e6f7420737570706f727465640000000000000000000000602082015250565b7f50726573616c6520686173206e6f7420656e6465642079657400000000000000600082015250565b614044816138ae565b811461404f57600080fd5b50565b61405b816138c0565b811461406657600080fd5b50565b614072816138cc565b811461407d57600080fd5b50565b61408981613918565b811461409457600080fd5b5056fea2646970667358221220d2e21925ffee1ed634d6918b683683ef24ee60d85e0898457ba81739764e243964736f6c63430008040033",
  "linkReferences": {},
  "deployedLinkReferences": {}
}